:03000000020100FA
:10010000780179017A03C296D29690FF30E9F09097
:10011000FF38E8F0C2967403128112D296740288F6
:10012000F0A4F890FF38E8F0C2967403128112D25E
:10013000961AEA70E87A05740289F0A4F990FF3003
:10014000E9F090FF38E8F0C2967403128112D2965B
:100150001AEA70E37A02740288F0A4F890FF38E893
:10016000F0C2967403128112D2961AEA70E87A05E8
:10017000780190FF30E9F090FF38E8F0C296740102
:10018000128112D29675F002E984F91AEA70E378C6
:050190000179017A0372
:00000001FF
