:03000000020100FA
:1001000075303F75310675325B75334F75346675E2
:10011000356D75367D75370775387F75396F752084
:100120003F75210675225B75234F75246675256D15
:1001300075267D75270775287F75296F758C4C7519
:100140008A00758901D28C793078207A147B0AD2A2
:100150009690FF307402F090FF38E6F0740A128136
:1001600012D29690FF307401F090FF38E7F0C296FB
:10017000740A128112D296308DD7C28D758C4C754F
:0A0180008A00091AEA70CA80FE0026
:00000001FF
