:03000000020100FA
:1001000075303F75310675325B75334F75346675E2
:10011000356D75367D75370775387F75396F781E83
:100120007414FB758C4C758A00758901D28C7930FA
:100130007A0AD29690FF307402F090FF38E7F0749C
:100140000A128112D296D29690FF307402F090FF7C
:1001500038E7F0740A12811290FF307401F090FFBA
:1001600038E7F0C296740A128112D296091AEA7020
:10017000D5C296D29679307A0AC28D1B758C4C7591
:100180008A00D28CEB70AD091AEA70A8D29608E802
:0501900070A280FE00DA
:00000001FF
