:03000000020100FA
:1001000075303F75310675325B75334F75346675E2
:10011000356D75367D75370775387F75396F752084
:100120003F75210675225B75234F75246675256D15
:1001300075267D75270775287F75296F758C4C7519
:100140008A00758901D28C79307A0A78207C0A7D00
:1001500014D29690FF307402F090FF38E6F0C29609
:100160007401128110D29690FF307401F090FF3824
:10017000E7F0C2967401128110D296308DD5C28DEF
:10018000758C4C758A001DED70C97D14091AEA70D2
:10019000C208C296D29679307A0AD28C1CEC70B31F
:0601A0007C0A02013C0094
:00000001FF
